{
	"data": {
		"bytecode": {
			"linkReferences": {},
			"object": "608060405234801561001057600080fd5b50611dcb806100206000396000f3fe608060405234801561001057600080fd5b50600436106100a95760003560e01c806367ca97c31161007157806367ca97c31461013e5780636f760f411461016e5780638bab8dd51461018a5780639e7a13ad146101ba5780639ebf003d146101eb578063c5f19c2014610207576100a9565b80631563700f146100ae5780631dda6541146100ca5780632e64cec1146100d45780636057361d146100f257806364591bf11461010e575b600080fd5b6100c860048036038101906100c39190610bae565b610237565b005b6100d26102ea565b005b6100dc61037d565b6040516100e99190610ceb565b60405180910390f35b61010c60048036038101906101079190610b54565b610386565b005b61012860048036038101906101239190610b54565b610390565b6040516101359190610cb0565b60405180910390f35b61015860048036038101906101539190610aaf565b6103cf565b6040516101659190610ceb565b60405180910390f35b61018860048036038101906101839190610af8565b6103f7565b005b6101a4600480360381019061019f9190610aaf565b610487565b6040516101b19190610ceb565b60405180910390f35b6101d460048036038101906101cf9190610b54565b6104b5565b6040516101e2929190610d06565b60405180910390f35b61020560048036038101906102009190610a37565b610571565b005b610221600480360381019061021c9190610b54565b6106ce565b60405161022e9190610ceb565b60405180910390f35b60006003838154811061024d5761024c610fb7565b5b9060005260206000200160009054906101000a900473ffffffffffffffffffffffffffffffffffffffff1690508073ffffffffffffffffffffffffffffffffffffffff16636057361d836040518263ffffffff1660e01b81526004016102b39190610ceb565b600060405180830381600087803b1580156102cd57600080fd5b505af11580156102e1573d6000803e3d6000fd5b50505050505050565b60006040516102f890610793565b604051809103906000f080158015610314573d6000803e3d6000fd5b5090506003819080600181540180825580915050600190039060005260206000200160009091909190916101000a81548173ffffffffffffffffffffffffffffffffffffffff021916908373ffffffffffffffffffffffffffffffffffffffff16021790555050565b60008054905090565b8060008190555050565b600381815481106103a057600080fd5b906000526020600020016000915054906101000a900473ffffffffffffffffffffffffffffffffffffffff1681565b60006002826040516103e19190610c99565b9081526020016040518091039020549050919050565b6001604051806040016040528083815260200184815250908060018154018082558091505060019003906000526020600020906002020160009091909190915060008201518160000155602082015181600101908051906020019061045d9291906107a0565b505050806002836040516104719190610c99565b9081526020016040518091039020819055505050565b6002818051602081018201805184825260208301602085012081835280955050505050506000915090505481565b600181815481106104c557600080fd5b90600052602060002090600202016000915090508060000154908060010180546104ee90610ead565b80601f016020809104026020016040519081016040528092919081815260200182805461051a90610ead565b80156105675780601f1061053c57610100808354040283529160200191610567565b820191906000526020600020905b81548152906001019060200180831161054a57829003601f168201915b5050505050905082565b8051825114156105b6576040517f08c379a00000000000000000000000000000000000000000000000000000000081526004016105ad90610ccb565b60405180910390fd5b60005b82518110156106c957600160405180604001604052808484815181106105e2576105e1610fb7565b5b6020026020010151815260200185848151811061060257610601610fb7565b5b6020026020010151815250908060018154018082558091505060019003906000526020600020906002020160009091909190915060008201518160000155602082015181600101908051906020019061065c9291906107a0565b50505081818151811061067257610671610fb7565b5b6020026020010151600284838151811061068f5761068e610fb7565b5b60200260200101516040516106a49190610c99565b90815260200160405180910390208190555080806106c190610f10565b9150506105b9565b505050565b6000600382815481106106e4576106e3610fb7565b5b9060005260206000200160009054906101000a900473ffffffffffffffffffffffffffffffffffffffff1673ffffffffffffffffffffffffffffffffffffffff16632e64cec16040518163ffffffff1660e01b815260040160206040518083038186803b15801561075457600080fd5b505afa158015610768573d6000803e3d6000fd5b505050506040513d601f19601f8201168201806040525081019061078c9190610b81565b9050919050565b610cf0806110a683390190565b8280546107ac90610ead565b90600052602060002090601f0160209004810192826107ce5760008555610815565b82601f106107e757805160ff1916838001178555610815565b82800160010185558215610815579182015b828111156108145782518255916020019190600101906107f9565b5b5090506108229190610826565b5090565b5b8082111561083f576000816000905550600101610827565b5090565b600061085661085184610d5b565b610d36565b905080838252602082019050828560208602820111156108795761087861101a565b5b60005b858110156108c757813567ffffffffffffffff81111561089f5761089e611015565b5b8086016108ac89826109df565b8552602085019450602084019350505060018101905061087c565b5050509392505050565b60006108e46108df84610d87565b610d36565b905080838252602082019050828560208602820111156109075761090661101a565b5b60005b85811015610937578161091d8882610a0d565b84526020840193506020830192505060018101905061090a565b5050509392505050565b600061095461094f84610db3565b610d36565b9050828152602081018484840111156109705761096f61101f565b5b61097b848285610e6b565b509392505050565b600082601f83011261099857610997611015565b5b81356109a8848260208601610843565b91505092915050565b600082601f8301126109c6576109c5611015565b5b81356109d68482602086016108d1565b91505092915050565b600082601f8301126109f4576109f3611015565b5b8135610a04848260208601610941565b91505092915050565b600081359050610a1c8161108e565b92915050565b600081519050610a318161108e565b92915050565b60008060408385031215610a4e57610a4d611029565b5b600083013567ffffffffffffffff811115610a6c57610a6b611024565b5b610a7885828601610983565b925050602083013567ffffffffffffffff811115610a9957610a98611024565b5b610aa5858286016109b1565b9150509250929050565b600060208284031215610ac557610ac4611029565b5b600082013567ffffffffffffffff811115610ae357610ae2611024565b5b610aef848285016109df565b91505092915050565b60008060408385031215610b0f57610b0e611029565b5b600083013567ffffffffffffffff811115610b2d57610b2c611024565b5b610b39858286016109df565b9250506020610b4a85828601610a0d565b9150509250929050565b600060208284031215610b6a57610b69611029565b5b6000610b7884828501610a0d565b91505092915050565b600060208284031215610b9757610b96611029565b5b6000610ba584828501610a22565b91505092915050565b60008060408385031215610bc557610bc4611029565b5b6000610bd385828601610a0d565b9250506020610be485828601610a0d565b9150509250929050565b610bf781610e35565b82525050565b6000610c0882610de4565b610c128185610def565b9350610c22818560208601610e7a565b610c2b8161102e565b840191505092915050565b6000610c4182610de4565b610c4b8185610e00565b9350610c5b818560208601610e7a565b80840191505092915050565b6000610c74602883610def565b9150610c7f8261103f565b604082019050919050565b610c9381610e2b565b82525050565b6000610ca58284610c36565b915081905092915050565b6000602082019050610cc56000830184610bee565b92915050565b60006020820190508181036000830152610ce481610c67565b9050919050565b6000602082019050610d006000830184610c8a565b92915050565b6000604082019050610d1b6000830185610c8a565b8181036020830152610d2d8184610bfd565b90509392505050565b6000610d40610d51565b9050610d4c8282610edf565b919050565b6000604051905090565b600067ffffffffffffffff821115610d7657610d75610fe6565b5b602082029050602081019050919050565b600067ffffffffffffffff821115610da257610da1610fe6565b5b602082029050602081019050919050565b600067ffffffffffffffff821115610dce57610dcd610fe6565b5b610dd78261102e565b9050602081019050919050565b600081519050919050565b600082825260208201905092915050565b600081905092915050565b600073ffffffffffffffffffffffffffffffffffffffff82169050919050565b6000819050919050565b6000610e4082610e47565b9050919050565b6000610e5282610e59565b9050919050565b6000610e6482610e0b565b9050919050565b82818337600083830152505050565b60005b83811015610e98578082015181840152602081019050610e7d565b83811115610ea7576000848401525b50505050565b60006002820490506001821680610ec557607f821691505b60208210811415610ed957610ed8610f88565b5b50919050565b610ee88261102e565b810181811067ffffffffffffffff82111715610f0757610f06610fe6565b5b80604052505050565b6000610f1b82610e2b565b91507fffffffffffffffffffffffffffffffffffffffffffffffffffffffffffffffff821415610f4e57610f4d610f59565b5b600182019050919050565b7f4e487b7100000000000000000000000000000000000000000000000000000000600052601160045260246000fd5b7f4e487b7100000000000000000000000000000000000000000000000000000000600052602260045260246000fd5b7f4e487b7100000000000000000000000000000000000000000000000000000000600052603260045260246000fd5b7f4e487b7100000000000000000000000000000000000000000000000000000000600052604160045260246000fd5b600080fd5b600080fd5b600080fd5b600080fd5b600080fd5b6000601f19601f8301169050919050565b7f4561636820706572736f6e206d75737420686176652061206661766f7572697460008201527f65206e756d626572000000000000000000000000000000000000000000000000602082015250565b61109781610e2b565b81146110a257600080fd5b5056fe608060405234801561001057600080fd5b50610cd0806100206000396000f3fe608060405234801561001057600080fd5b506004361061007d5760003560e01c80636f760f411161005b5780636f760f41146100ec5780638bab8dd5146101085780639e7a13ad146101385780639ebf003d146101695761007d565b80632e64cec1146100825780636057361d146100a057806367ca97c3146100bc575b600080fd5b61008a610185565b6040516100979190610936565b60405180910390f35b6100ba60048036038101906100b59190610836565b61018e565b005b6100d660048036038101906100d19190610791565b610198565b6040516100e39190610936565b60405180910390f35b610106600480360381019061010191906107da565b6101c0565b005b610122600480360381019061011d9190610791565b610250565b60405161012f9190610936565b60405180910390f35b610152600480360381019061014d9190610836565b61027e565b604051610160929190610951565b60405180910390f35b610183600480360381019061017e9190610719565b61033a565b005b60008054905090565b8060008190555050565b60006002826040516101aa91906108ff565b9081526020016040518091039020549050919050565b60016040518060400160405280838152602001848152509080600181540180825580915050600190039060005260206000209060020201600090919091909150600082015181600001556020820151816001019080519060200190610226929190610497565b5050508060028360405161023a91906108ff565b9081526020016040518091039020819055505050565b6002818051602081018201805184825260208301602085012081835280955050505050506000915090505481565b6001818154811061028e57600080fd5b90600052602060002090600202016000915090508060000154908060010180546102b790610aa2565b80601f01602080910402602001604051908101604052809291908181526020018280546102e390610aa2565b80156103305780601f1061030557610100808354040283529160200191610330565b820191906000526020600020905b81548152906001019060200180831161031357829003601f168201915b5050505050905082565b80518251141561037f576040517f08c379a000000000000000000000000000000000000000000000000000000000815260040161037690610916565b60405180910390fd5b60005b825181101561049257600160405180604001604052808484815181106103ab576103aa610bac565b5b602002602001015181526020018584815181106103cb576103ca610bac565b5b60200260200101518152509080600181540180825580915050600190039060005260206000209060020201600090919091909150600082015181600001556020820151816001019080519060200190610425929190610497565b50505081818151811061043b5761043a610bac565b5b6020026020010151600284838151811061045857610457610bac565b5b602002602001015160405161046d91906108ff565b908152602001604051809103902081905550808061048a90610b05565b915050610382565b505050565b8280546104a390610aa2565b90600052602060002090601f0160209004810192826104c5576000855561050c565b82601f106104de57805160ff191683800117855561050c565b8280016001018555821561050c579182015b8281111561050b5782518255916020019190600101906104f0565b5b509050610519919061051d565b5090565b5b8082111561053657600081600090555060010161051e565b5090565b600061054d610548846109a6565b610981565b905080838252602082019050828560208602820111156105705761056f610c0f565b5b60005b858110156105be57813567ffffffffffffffff81111561059657610595610c0a565b5b8086016105a389826106d6565b85526020850194506020840193505050600181019050610573565b5050509392505050565b60006105db6105d6846109d2565b610981565b905080838252602082019050828560208602820111156105fe576105fd610c0f565b5b60005b8581101561062e57816106148882610704565b845260208401935060208301925050600181019050610601565b5050509392505050565b600061064b610646846109fe565b610981565b90508281526020810184848401111561066757610666610c14565b5b610672848285610a60565b509392505050565b600082601f83011261068f5761068e610c0a565b5b813561069f84826020860161053a565b91505092915050565b600082601f8301126106bd576106bc610c0a565b5b81356106cd8482602086016105c8565b91505092915050565b600082601f8301126106eb576106ea610c0a565b5b81356106fb848260208601610638565b91505092915050565b60008135905061071381610c83565b92915050565b600080604083850312156107305761072f610c1e565b5b600083013567ffffffffffffffff81111561074e5761074d610c19565b5b61075a8582860161067a565b925050602083013567ffffffffffffffff81111561077b5761077a610c19565b5b610787858286016106a8565b9150509250929050565b6000602082840312156107a7576107a6610c1e565b5b600082013567ffffffffffffffff8111156107c5576107c4610c19565b5b6107d1848285016106d6565b91505092915050565b600080604083850312156107f1576107f0610c1e565b5b600083013567ffffffffffffffff81111561080f5761080e610c19565b5b61081b858286016106d6565b925050602061082c85828601610704565b9150509250929050565b60006020828403121561084c5761084b610c1e565b5b600061085a84828501610704565b91505092915050565b600061086e82610a2f565b6108788185610a3a565b9350610888818560208601610a6f565b61089181610c23565b840191505092915050565b60006108a782610a2f565b6108b18185610a4b565b93506108c1818560208601610a6f565b80840191505092915050565b60006108da602883610a3a565b91506108e582610c34565b604082019050919050565b6108f981610a56565b82525050565b600061090b828461089c565b915081905092915050565b6000602082019050818103600083015261092f816108cd565b9050919050565b600060208201905061094b60008301846108f0565b92915050565b600060408201905061096660008301856108f0565b81810360208301526109788184610863565b90509392505050565b600061098b61099c565b90506109978282610ad4565b919050565b6000604051905090565b600067ffffffffffffffff8211156109c1576109c0610bdb565b5b602082029050602081019050919050565b600067ffffffffffffffff8211156109ed576109ec610bdb565b5b602082029050602081019050919050565b600067ffffffffffffffff821115610a1957610a18610bdb565b5b610a2282610c23565b9050602081019050919050565b600081519050919050565b600082825260208201905092915050565b600081905092915050565b6000819050919050565b82818337600083830152505050565b60005b83811015610a8d578082015181840152602081019050610a72565b83811115610a9c576000848401525b50505050565b60006002820490506001821680610aba57607f821691505b60208210811415610ace57610acd610b7d565b5b50919050565b610add82610c23565b810181811067ffffffffffffffff82111715610afc57610afb610bdb565b5b80604052505050565b6000610b1082610a56565b91507fffffffffffffffffffffffffffffffffffffffffffffffffffffffffffffffff821415610b4357610b42610b4e565b5b600182019050919050565b7f4e487b7100000000000000000000000000000000000000000000000000000000600052601160045260246000fd5b7f4e487b7100000000000000000000000000000000000000000000000000000000600052602260045260246000fd5b7f4e487b7100000000000000000000000000000000000000000000000000000000600052603260045260246000fd5b7f4e487b7100000000000000000000000000000000000000000000000000000000600052604160045260246000fd5b600080fd5b600080fd5b600080fd5b600080fd5b600080fd5b6000601f19601f8301169050919050565b7f4561636820706572736f6e206d75737420686176652061206661766f7572697460008201527f65206e756d626572000000000000000000000000000000000000000000000000602082015250565b610c8c81610a56565b8114610c9757600080fd5b5056fea26469706673582212200011a57504c5cb854fc1175c2318f4bccf94a1b7c03cecb8b3080a68d7d3c75164736f6c63430008070033a26469706673582212202377dbdd8dabd073d0bae48a755b063605491de6cd48bb940c47de16ba7e7c7464736f6c63430008070033",
			"opcodes": "PUSH1 0x80 PUSH1 0x40 MSTORE CALLVALUE DUP1 ISZERO PUSH2 0x10 JUMPI PUSH1 0x0 DUP1 REVERT JUMPDEST POP PUSH2 0x1DCB DUP1 PUSH2 0x20 PUSH1 0x0 CODECOPY PUSH1 0x0 RETURN INVALID PUSH1 0x80 PUSH1 0x40 MSTORE CALLVALUE DUP1 ISZERO PUSH2 0x10 JUMPI PUSH1 0x0 DUP1 REVERT JUMPDEST POP PUSH1 0x4 CALLDATASIZE LT PUSH2 0xA9 JUMPI PUSH1 0x0 CALLDATALOAD PUSH1 0xE0 SHR DUP1 PUSH4 0x67CA97C3 GT PUSH2 0x71 JUMPI DUP1 PUSH4 0x67CA97C3 EQ PUSH2 0x13E JUMPI DUP1 PUSH4 0x6F760F41 EQ PUSH2 0x16E JUMPI DUP1 PUSH4 0x8BAB8DD5 EQ PUSH2 0x18A JUMPI DUP1 PUSH4 0x9E7A13AD EQ PUSH2 0x1BA JUMPI DUP1 PUSH4 0x9EBF003D EQ PUSH2 0x1EB JUMPI DUP1 PUSH4 0xC5F19C20 EQ PUSH2 0x207 JUMPI PUSH2 0xA9 JUMP JUMPDEST DUP1 PUSH4 0x1563700F EQ PUSH2 0xAE JUMPI DUP1 PUSH4 0x1DDA6541 EQ PUSH2 0xCA JUMPI DUP1 PUSH4 0x2E64CEC1 EQ PUSH2 0xD4 JUMPI DUP1 PUSH4 0x6057361D EQ PUSH2 0xF2 JUMPI DUP1 PUSH4 0x64591BF1 EQ PUSH2 0x10E JUMPI JUMPDEST PUSH1 0x0 DUP1 REVERT JUMPDEST PUSH2 0xC8 PUSH1 0x4 DUP1 CALLDATASIZE SUB DUP2 ADD SWAP1 PUSH2 0xC3 SWAP2 SWAP1 PUSH2 0xBAE JUMP JUMPDEST PUSH2 0x237 JUMP JUMPDEST STOP JUMPDEST PUSH2 0xD2 PUSH2 0x2EA JUMP JUMPDEST STOP JUMPDEST PUSH2 0xDC PUSH2 0x37D JUMP JUMPDEST PUSH1 0x40 MLOAD PUSH2 0xE9 SWAP2 SWAP1 PUSH2 0xCEB JUMP JUMPDEST PUSH1 0x40 MLOAD DUP1 SWAP2 SUB SWAP1 RETURN JUMPDEST PUSH2 0x10C PUSH1 0x4 DUP1 CALLDATASIZE SUB DUP2 ADD SWAP1 PUSH2 0x107 SWAP2 SWAP1 PUSH2 0xB54 JUMP JUMPDEST PUSH2 0x386 JUMP JUMPDEST STOP JUMPDEST PUSH2 0x128 PUSH1 0x4 DUP1 CALLDATASIZE SUB DUP2 ADD SWAP1 PUSH2 0x123 SWAP2 SWAP1 PUSH2 0xB54 JUMP JUMPDEST PUSH2 0x390 JUMP JUMPDEST PUSH1 0x40 MLOAD PUSH2 0x135 SWAP2 SWAP1 PUSH2 0xCB0 JUMP JUMPDEST PUSH1 0x40 MLOAD DUP1 SWAP2 SUB SWAP1 RETURN JUMPDEST PUSH2 0x158 PUSH1 0x4 DUP1 CALLDATASIZE SUB DUP2 ADD SWAP1 PUSH2 0x153 SWAP2 SWAP1 PUSH2 0xAAF JUMP JUMPDEST PUSH2 0x3CF JUMP JUMPDEST PUSH1 0x40 MLOAD PUSH2 0x165 SWAP2 SWAP1 PUSH2 0xCEB JUMP JUMPDEST PUSH1 0x40 MLOAD DUP1 SWAP2 SUB SWAP1 RETURN JUMPDEST PUSH2 0x188 PUSH1 0x4 DUP1 CALLDATASIZE SUB DUP2 ADD SWAP1 PUSH2 0x183 SWAP2 SWAP1 PUSH2 0xAF8 JUMP JUMPDEST PUSH2 0x3F7 JUMP JUMPDEST STOP JUMPDEST PUSH2 0x1A4 PUSH1 0x4 DUP1 CALLDATASIZE SUB DUP2 ADD SWAP1 PUSH2 0x19F SWAP2 SWAP1 PUSH2 0xAAF JUMP JUMPDEST PUSH2 0x487 JUMP JUMPDEST PUSH1 0x40 MLOAD PUSH2 0x1B1 SWAP2 SWAP1 PUSH2 0xCEB JUMP JUMPDEST PUSH1 0x40 MLOAD DUP1 SWAP2 SUB SWAP1 RETURN JUMPDEST PUSH2 0x1D4 PUSH1 0x4 DUP1 CALLDATASIZE SUB DUP2 ADD SWAP1 PUSH2 0x1CF SWAP2 SWAP1 PUSH2 0xB54 JUMP JUMPDEST PUSH2 0x4B5 JUMP JUMPDEST PUSH1 0x40 MLOAD PUSH2 0x1E2 SWAP3 SWAP2 SWAP1 PUSH2 0xD06 JUMP JUMPDEST PUSH1 0x40 MLOAD DUP1 SWAP2 SUB SWAP1 RETURN JUMPDEST PUSH2 0x205 PUSH1 0x4 DUP1 CALLDATASIZE SUB DUP2 ADD SWAP1 PUSH2 0x200 SWAP2 SWAP1 PUSH2 0xA37 JUMP JUMPDEST PUSH2 0x571 JUMP JUMPDEST STOP JUMPDEST PUSH2 0x221 PUSH1 0x4 DUP1 CALLDATASIZE SUB DUP2 ADD SWAP1 PUSH2 0x21C SWAP2 SWAP1 PUSH2 0xB54 JUMP JUMPDEST PUSH2 0x6CE JUMP JUMPDEST PUSH1 0x40 MLOAD PUSH2 0x22E SWAP2 SWAP1 PUSH2 0xCEB JUMP JUMPDEST PUSH1 0x40 MLOAD DUP1 SWAP2 SUB SWAP1 RETURN JUMPDEST PUSH1 0x0 PUSH1 0x3 DUP4 DUP2 SLOAD DUP2 LT PUSH2 0x24D JUMPI PUSH2 0x24C PUSH2 0xFB7 JUMP JUMPDEST JUMPDEST SWAP1 PUSH1 0x0 MSTORE PUSH1 0x20 PUSH1 0x0 KECCAK256 ADD PUSH1 0x0 SWAP1 SLOAD SWAP1 PUSH2 0x100 EXP SWAP1 DIV PUSH20 0xFFFFFFFFFFFFFFFFFFFFFFFFFFFFFFFFFFFFFFFF AND SWAP1 POP DUP1 PUSH20 0xFFFFFFFFFFFFFFFFFFFFFFFFFFFFFFFFFFFFFFFF AND PUSH4 0x6057361D DUP4 PUSH1 0x40 MLOAD DUP3 PUSH4 0xFFFFFFFF AND PUSH1 0xE0 SHL DUP2 MSTORE PUSH1 0x4 ADD PUSH2 0x2B3 SWAP2 SWAP1 PUSH2 0xCEB JUMP JUMPDEST PUSH1 0x0 PUSH1 0x40 MLOAD DUP1 DUP4 SUB DUP2 PUSH1 0x0 DUP8 DUP1 EXTCODESIZE ISZERO DUP1 ISZERO PUSH2 0x2CD JUMPI PUSH1 0x0 DUP1 REVERT JUMPDEST POP GAS CALL ISZERO DUP1 ISZERO PUSH2 0x2E1 JUMPI RETURNDATASIZE PUSH1 0x0 DUP1 RETURNDATACOPY RETURNDATASIZE PUSH1 0x0 REVERT JUMPDEST POP POP POP POP POP POP POP JUMP JUMPDEST PUSH1 0x0 PUSH1 0x40 MLOAD PUSH2 0x2F8 SWAP1 PUSH2 0x793 JUMP JUMPDEST PUSH1 0x40 MLOAD DUP1 SWAP2 SUB SWAP1 PUSH1 0x0 CREATE DUP1 ISZERO DUP1 ISZERO PUSH2 0x314 JUMPI RETURNDATASIZE PUSH1 0x0 DUP1 RETURNDATACOPY RETURNDATASIZE PUSH1 0x0 REVERT JUMPDEST POP SWAP1 POP PUSH1 0x3 DUP2 SWAP1 DUP1 PUSH1 0x1 DUP2 SLOAD ADD DUP1 DUP3 SSTORE DUP1 SWAP2 POP POP PUSH1 0x1 SWAP1 SUB SWAP1 PUSH1 0x0 MSTORE PUSH1 0x20 PUSH1 0x0 KECCAK256 ADD PUSH1 0x0 SWAP1 SWAP2 SWAP1 SWAP2 SWAP1 SWAP2 PUSH2 0x100 EXP DUP2 SLOAD DUP2 PUSH20 0xFFFFFFFFFFFFFFFFFFFFFFFFFFFFFFFFFFFFFFFF MUL NOT AND SWAP1 DUP4 PUSH20 0xFFFFFFFFFFFFFFFFFFFFFFFFFFFFFFFFFFFFFFFF AND MUL OR SWAP1 SSTORE POP POP JUMP JUMPDEST PUSH1 0x0 DUP1 SLOAD SWAP1 POP SWAP1 JUMP JUMPDEST DUP1 PUSH1 0x0 DUP2 SWAP1 SSTORE POP POP JUMP JUMPDEST PUSH1 0x3 DUP2 DUP2 SLOAD DUP2 LT PUSH2 0x3A0 JUMPI PUSH1 0x0 DUP1 REVERT JUMPDEST SWAP1 PUSH1 0x0 MSTORE PUSH1 0x20 PUSH1 0x0 KECCAK256 ADD PUSH1 0x0 SWAP2 POP SLOAD SWAP1 PUSH2 0x100 EXP SWAP1 DIV PUSH20 0xFFFFFFFFFFFFFFFFFFFFFFFFFFFFFFFFFFFFFFFF AND DUP2 JUMP JUMPDEST PUSH1 0x0 PUSH1 0x2 DUP3 PUSH1 0x40 MLOAD PUSH2 0x3E1 SWAP2 SWAP1 PUSH2 0xC99 JUMP JUMPDEST SWAP1 DUP2 MSTORE PUSH1 0x20 ADD PUSH1 0x40 MLOAD DUP1 SWAP2 SUB SWAP1 KECCAK256 SLOAD SWAP1 POP SWAP2 SWAP1 POP JUMP JUMPDEST PUSH1 0x1 PUSH1 0x40 MLOAD DUP1 PUSH1 0x40 ADD PUSH1 0x40 MSTORE DUP1 DUP4 DUP2 MSTORE PUSH1 0x20 ADD DUP5 DUP2 MSTORE POP SWAP1 DUP1 PUSH1 0x1 DUP2 SLOAD ADD DUP1 DUP3 SSTORE DUP1 SWAP2 POP POP PUSH1 0x1 SWAP1 SUB SWAP1 PUSH1 0x0 MSTORE PUSH1 0x20 PUSH1 0x0 KECCAK256 SWAP1 PUSH1 0x2 MUL ADD PUSH1 0x0 SWAP1 SWAP2 SWAP1 SWAP2 SWAP1 SWAP2 POP PUSH1 0x0 DUP3 ADD MLOAD DUP2 PUSH1 0x0 ADD SSTORE PUSH1 0x20 DUP3 ADD MLOAD DUP2 PUSH1 0x1 ADD SWAP1 DUP1 MLOAD SWAP1 PUSH1 0x20 ADD SWAP1 PUSH2 0x45D SWAP3 SWAP2 SWAP1 PUSH2 0x7A0 JUMP JUMPDEST POP POP POP DUP1 PUSH1 0x2 DUP4 PUSH1 0x40 MLOAD PUSH2 0x471 SWAP2 SWAP1 PUSH2 0xC99 JUMP JUMPDEST SWAP1 DUP2 MSTORE PUSH1 0x20 ADD PUSH1 0x40 MLOAD DUP1 SWAP2 SUB SWAP1 KECCAK256 DUP2 SWAP1 SSTORE POP POP POP JUMP JUMPDEST PUSH1 0x2 DUP2 DUP1 MLOAD PUSH1 0x20 DUP2 ADD DUP3 ADD DUP1 MLOAD DUP5 DUP3 MSTORE PUSH1 0x20 DUP4 ADD PUSH1 0x20 DUP6 ADD KECCAK256 DUP2 DUP4 MSTORE DUP1 SWAP6 POP POP POP POP POP POP PUSH1 0x0 SWAP2 POP SWAP1 POP SLOAD DUP2 JUMP JUMPDEST PUSH1 0x1 DUP2 DUP2 SLOAD DUP2 LT PUSH2 0x4C5 JUMPI PUSH1 0x0 DUP1 REVERT JUMPDEST SWAP1 PUSH1 0x0 MSTORE PUSH1 0x20 PUSH1 0x0 KECCAK256 SWAP1 PUSH1 0x2 MUL ADD PUSH1 0x0 SWAP2 POP SWAP1 POP DUP1 PUSH1 0x0 ADD SLOAD SWAP1 DUP1 PUSH1 0x1 ADD DUP1 SLOAD PUSH2 0x4EE SWAP1 PUSH2 0xEAD JUMP JUMPDEST DUP1 PUSH1 0x1F ADD PUSH1 0x20 DUP1 SWAP2 DIV MUL PUSH1 0x20 ADD PUSH1 0x40 MLOAD SWAP1 DUP2 ADD PUSH1 0x40 MSTORE DUP1 SWAP3 SWAP2 SWAP1 DUP2 DUP2 MSTORE PUSH1 0x20 ADD DUP3 DUP1 SLOAD PUSH2 0x51A SWAP1 PUSH2 0xEAD JUMP JUMPDEST DUP1 ISZERO PUSH2 0x567 JUMPI DUP1 PUSH1 0x1F LT PUSH2 0x53C JUMPI PUSH2 0x100 DUP1 DUP4 SLOAD DIV MUL DUP4 MSTORE SWAP2 PUSH1 0x20 ADD SWAP2 PUSH2 0x567 JUMP JUMPDEST DUP3 ADD SWAP2 SWAP1 PUSH1 0x0 MSTORE PUSH1 0x20 PUSH1 0x0 KECCAK256 SWAP1 JUMPDEST DUP2 SLOAD DUP2 MSTORE SWAP1 PUSH1 0x1 ADD SWAP1 PUSH1 0x20 ADD DUP1 DUP4 GT PUSH2 0x54A JUMPI DUP3 SWAP1 SUB PUSH1 0x1F AND DUP3 ADD SWAP2 JUMPDEST POP POP POP POP POP SWAP1 POP DUP3 JUMP JUMPDEST DUP1 MLOAD DUP3 MLOAD EQ ISZERO PUSH2 0x5B6 JUMPI PUSH1 0x40 MLOAD PUSH32 0x8C379A000000000000000000000000000000000000000000000000000000000 DUP2 MSTORE PUSH1 0x4 ADD PUSH2 0x5AD SWAP1 PUSH2 0xCCB JUMP JUMPDEST PUSH1 0x40 MLOAD DUP1 SWAP2 SUB SWAP1 REVERT JUMPDEST PUSH1 0x0 JUMPDEST DUP3 MLOAD DUP2 LT ISZERO PUSH2 0x6C9 JUMPI PUSH1 0x1 PUSH1 0x40 MLOAD DUP1 PUSH1 0x40 ADD PUSH1 0x40 MSTORE DUP1 DUP5 DUP5 DUP2 MLOAD DUP2 LT PUSH2 0x5E2 JUMPI PUSH2 0x5E1 PUSH2 0xFB7 JUMP JUMPDEST JUMPDEST PUSH1 0x20 MUL PUSH1 0x20 ADD ADD MLOAD DUP2 MSTORE PUSH1 0x20 ADD DUP6 DUP5 DUP2 MLOAD DUP2 LT PUSH2 0x602 JUMPI PUSH2 0x601 PUSH2 0xFB7 JUMP JUMPDEST JUMPDEST PUSH1 0x20 MUL PUSH1 0x20 ADD ADD MLOAD DUP2 MSTORE POP SWAP1 DUP1 PUSH1 0x1 DUP2 SLOAD ADD DUP1 DUP3 SSTORE DUP1 SWAP2 POP POP PUSH1 0x1 SWAP1 SUB SWAP1 PUSH1 0x0 MSTORE PUSH1 0x20 PUSH1 0x0 KECCAK256 SWAP1 PUSH1 0x2 MUL ADD PUSH1 0x0 SWAP1 SWAP2 SWAP1 SWAP2 SWAP1 SWAP2 POP PUSH1 0x0 DUP3 ADD MLOAD DUP2 PUSH1 0x0 ADD SSTORE PUSH1 0x20 DUP3 ADD MLOAD DUP2 PUSH1 0x1 ADD SWAP1 DUP1 MLOAD SWAP1 PUSH1 0x20 ADD SWAP1 PUSH2 0x65C SWAP3 SWAP2 SWAP1 PUSH2 0x7A0 JUMP JUMPDEST POP POP POP DUP2 DUP2 DUP2 MLOAD DUP2 LT PUSH2 0x672 JUMPI PUSH2 0x671 PUSH2 0xFB7 JUMP JUMPDEST JUMPDEST PUSH1 0x20 MUL PUSH1 0x20 ADD ADD MLOAD PUSH1 0x2 DUP5 DUP4 DUP2 MLOAD DUP2 LT PUSH2 0x68F JUMPI PUSH2 0x68E PUSH2 0xFB7 JUMP JUMPDEST JUMPDEST PUSH1 0x20 MUL PUSH1 0x20 ADD ADD MLOAD PUSH1 0x40 MLOAD PUSH2 0x6A4 SWAP2 SWAP1 PUSH2 0xC99 JUMP JUMPDEST SWAP1 DUP2 MSTORE PUSH1 0x20 ADD PUSH1 0x40 MLOAD DUP1 SWAP2 SUB SWAP1 KECCAK256 DUP2 SWAP1 SSTORE POP DUP1 DUP1 PUSH2 0x6C1 SWAP1 PUSH2 0xF10 JUMP JUMPDEST SWAP2 POP POP PUSH2 0x5B9 JUMP JUMPDEST POP POP POP JUMP JUMPDEST PUSH1 0x0 PUSH1 0x3 DUP3 DUP2 SLOAD DUP2 LT PUSH2 0x6E4 JUMPI PUSH2 0x6E3 PUSH2 0xFB7 JUMP JUMPDEST JUMPDEST SWAP1 PUSH1 0x0 MSTORE PUSH1 0x20 PUSH1 0x0 KECCAK256 ADD PUSH1 0x0 SWAP1 SLOAD SWAP1 PUSH2 0x100 EXP SWAP1 DIV PUSH20 0xFFFFFFFFFFFFFFFFFFFFFFFFFFFFFFFFFFFFFFFF AND PUSH20 0xFFFFFFFFFFFFFFFFFFFFFFFFFFFFFFFFFFFFFFFF AND PUSH4 0x2E64CEC1 PUSH1 0x40 MLOAD DUP2 PUSH4 0xFFFFFFFF AND PUSH1 0xE0 SHL DUP2 MSTORE PUSH1 0x4 ADD PUSH1 0x20 PUSH1 0x40 MLOAD DUP1 DUP4 SUB DUP2 DUP7 DUP1 EXTCODESIZE ISZERO DUP1 ISZERO PUSH2 0x754 JUMPI PUSH1 0x0 DUP1 REVERT JUMPDEST POP GAS STATICCALL ISZERO DUP1 ISZERO PUSH2 0x768 JUMPI RETURNDATASIZE PUSH1 0x0 DUP1 RETURNDATACOPY RETURNDATASIZE PUSH1 0x0 REVERT JUMPDEST POP POP POP POP PUSH1 0x40 MLOAD RETURNDATASIZE PUSH1 0x1F NOT PUSH1 0x1F DUP3 ADD AND DUP3 ADD DUP1 PUSH1 0x40 MSTORE POP DUP2 ADD SWAP1 PUSH2 0x78C SWAP2 SWAP1 PUSH2 0xB81 JUMP JUMPDEST SWAP1 POP SWAP2 SWAP1 POP JUMP JUMPDEST PUSH2 0xCF0 DUP1 PUSH2 0x10A6 DUP4 CODECOPY ADD SWAP1 JUMP JUMPDEST DUP3 DUP1 SLOAD PUSH2 0x7AC SWAP1 PUSH2 0xEAD JUMP JUMPDEST SWAP1 PUSH1 0x0 MSTORE PUSH1 0x20 PUSH1 0x0 KECCAK256 SWAP1 PUSH1 0x1F ADD PUSH1 0x20 SWAP1 DIV DUP2 ADD SWAP3 DUP3 PUSH2 0x7CE JUMPI PUSH1 0x0 DUP6 SSTORE PUSH2 0x815 JUMP JUMPDEST DUP3 PUSH1 0x1F LT PUSH2 0x7E7 JUMPI DUP1 MLOAD PUSH1 0xFF NOT AND DUP4 DUP1 ADD OR DUP6 SSTORE PUSH2 0x815 JUMP JUMPDEST DUP3 DUP1 ADD PUSH1 0x1 ADD DUP6 SSTORE DUP3 ISZERO PUSH2 0x815 JUMPI SWAP2 DUP3 ADD JUMPDEST DUP3 DUP2 GT ISZERO PUSH2 0x814 JUMPI DUP3 MLOAD DUP3 SSTORE SWAP2 PUSH1 0x20 ADD SWAP2 SWAP1 PUSH1 0x1 ADD SWAP1 PUSH2 0x7F9 JUMP JUMPDEST JUMPDEST POP SWAP1 POP PUSH2 0x822 SWAP2 SWAP1 PUSH2 0x826 JUMP JUMPDEST POP SWAP1 JUMP JUMPDEST JUMPDEST DUP1 DUP3 GT ISZERO PUSH2 0x83F JUMPI PUSH1 0x0 DUP2 PUSH1 0x0 SWAP1 SSTORE POP PUSH1 0x1 ADD PUSH2 0x827 JUMP JUMPDEST POP SWAP1 JUMP JUMPDEST PUSH1 0x0 PUSH2 0x856 PUSH2 0x851 DUP5 PUSH2 0xD5B JUMP JUMPDEST PUSH2 0xD36 JUMP JUMPDEST SWAP1 POP DUP1 DUP4 DUP3 MSTORE PUSH1 0x20 DUP3 ADD SWAP1 POP DUP3 DUP6 PUSH1 0x20 DUP7 MUL DUP3 ADD GT ISZERO PUSH2 0x879 JUMPI PUSH2 0x878 PUSH2 0x101A JUMP JUMPDEST JUMPDEST PUSH1 0x0 JUMPDEST DUP6 DUP2 LT ISZERO PUSH2 0x8C7 JUMPI DUP2 CALLDATALOAD PUSH8 0xFFFFFFFFFFFFFFFF DUP2 GT ISZERO PUSH2 0x89F JUMPI PUSH2 0x89E PUSH2 0x1015 JUMP JUMPDEST JUMPDEST DUP1 DUP7 ADD PUSH2 0x8AC DUP10 DUP3 PUSH2 0x9DF JUMP JUMPDEST DUP6 MSTORE PUSH1 0x20 DUP6 ADD SWAP5 POP PUSH1 0x20 DUP5 ADD SWAP4 POP POP POP PUSH1 0x1 DUP2 ADD SWAP1 POP PUSH2 0x87C JUMP JUMPDEST POP POP POP SWAP4 SWAP3 POP POP POP JUMP JUMPDEST PUSH1 0x0 PUSH2 0x8E4 PUSH2 0x8DF DUP5 PUSH2 0xD87 JUMP JUMPDEST PUSH2 0xD36 JUMP JUMPDEST SWAP1 POP DUP1 DUP4 DUP3 MSTORE PUSH1 0x20 DUP3 ADD SWAP1 POP DUP3 DUP6 PUSH1 0x20 DUP7 MUL DUP3 ADD GT ISZERO PUSH2 0x907 JUMPI PUSH2 0x906 PUSH2 0x101A JUMP JUMPDEST JUMPDEST PUSH1 0x0 JUMPDEST DUP6 DUP2 LT ISZERO PUSH2 0x937 JUMPI DUP2 PUSH2 0x91D DUP9 DUP3 PUSH2 0xA0D JUMP JUMPDEST DUP5 MSTORE PUSH1 0x20 DUP5 ADD SWAP4 POP PUSH1 0x20 DUP4 ADD SWAP3 POP POP PUSH1 0x1 DUP2 ADD SWAP1 POP PUSH2 0x90A JUMP JUMPDEST POP POP POP SWAP4 SWAP3 POP POP POP JUMP JUMPDEST PUSH1 0x0 PUSH2 0x954 PUSH2 0x94F DUP5 PUSH2 0xDB3 JUMP JUMPDEST PUSH2 0xD36 JUMP JUMPDEST SWAP1 POP DUP3 DUP2 MSTORE PUSH1 0x20 DUP2 ADD DUP5 DUP5 DUP5 ADD GT ISZERO PUSH2 0x970 JUMPI PUSH2 0x96F PUSH2 0x101F JUMP JUMPDEST JUMPDEST PUSH2 0x97B DUP5 DUP3 DUP6 PUSH2 0xE6B JUMP JUMPDEST POP SWAP4 SWAP3 POP POP POP JUMP JUMPDEST PUSH1 0x0 DUP3 PUSH1 0x1F DUP4 ADD SLT PUSH2 0x998 JUMPI PUSH2 0x997 PUSH2 0x1015 JUMP JUMPDEST JUMPDEST DUP2 CALLDATALOAD PUSH2 0x9A8 DUP5 DUP3 PUSH1 0x20 DUP7 ADD PUSH2 0x843 JUMP JUMPDEST SWAP2 POP POP SWAP3 SWAP2 POP POP JUMP JUMPDEST PUSH1 0x0 DUP3 PUSH1 0x1F DUP4 ADD SLT PUSH2 0x9C6 JUMPI PUSH2 0x9C5 PUSH2 0x1015 JUMP JUMPDEST JUMPDEST DUP2 CALLDATALOAD PUSH2 0x9D6 DUP5 DUP3 PUSH1 0x20 DUP7 ADD PUSH2 0x8D1 JUMP JUMPDEST SWAP2 POP POP SWAP3 SWAP2 POP POP JUMP JUMPDEST PUSH1 0x0 DUP3 PUSH1 0x1F DUP4 ADD SLT PUSH2 0x9F4 JUMPI PUSH2 0x9F3 PUSH2 0x1015 JUMP JUMPDEST JUMPDEST DUP2 CALLDATALOAD PUSH2 0xA04 DUP5 DUP3 PUSH1 0x20 DUP7 ADD PUSH2 0x941 JUMP JUMPDEST SWAP2 POP POP SWAP3 SWAP2 POP POP JUMP JUMPDEST PUSH1 0x0 DUP2 CALLDATALOAD SWAP1 POP PUSH2 0xA1C DUP2 PUSH2 0x108E JUMP JUMPDEST SWAP3 SWAP2 POP POP JUMP JUMPDEST PUSH1 0x0 DUP2 MLOAD SWAP1 POP PUSH2 0xA31 DUP2 PUSH2 0x108E JUMP JUMPDEST SWAP3 SWAP2 POP POP JUMP JUMPDEST PUSH1 0x0 DUP1 PUSH1 0x40 DUP4 DUP6 SUB SLT ISZERO PUSH2 0xA4E JUMPI PUSH2 0xA4D PUSH2 0x1029 JUMP JUMPDEST JUMPDEST PUSH1 0x0 DUP4 ADD CALLDATALOAD PUSH8 0xFFFFFFFFFFFFFFFF DUP2 GT ISZERO PUSH2 0xA6C JUMPI PUSH2 0xA6B PUSH2 0x1024 JUMP JUMPDEST JUMPDEST PUSH2 0xA78 DUP6 DUP3 DUP7 ADD PUSH2 0x983 JUMP JUMPDEST SWAP3 POP POP PUSH1 0x20 DUP4 ADD CALLDATALOAD PUSH8 0xFFFFFFFFFFFFFFFF DUP2 GT ISZERO PUSH2 0xA99 JUMPI PUSH2 0xA98 PUSH2 0x1024 JUMP JUMPDEST JUMPDEST PUSH2 0xAA5 DUP6 DUP3 DUP7 ADD PUSH2 0x9B1 JUMP JUMPDEST SWAP2 POP POP SWAP3 POP SWAP3 SWAP1 POP JUMP JUMPDEST PUSH1 0x0 PUSH1 0x20 DUP3 DUP5 SUB SLT ISZERO PUSH2 0xAC5 JUMPI PUSH2 0xAC4 PUSH2 0x1029 JUMP JUMPDEST JUMPDEST PUSH1 0x0 DUP3 ADD CALLDATALOAD PUSH8 0xFFFFFFFFFFFFFFFF DUP2 GT ISZERO PUSH2 0xAE3 JUMPI PUSH2 0xAE2 PUSH2 0x1024 JUMP JUMPDEST JUMPDEST PUSH2 0xAEF DUP5 DUP3 DUP6 ADD PUSH2 0x9DF JUMP JUMPDEST SWAP2 POP POP SWAP3 SWAP2 POP POP JUMP JUMPDEST PUSH1 0x0 DUP1 PUSH1 0x40 DUP4 DUP6 SUB SLT ISZERO PUSH2 0xB0F JUMPI PUSH2 0xB0E PUSH2 0x1029 JUMP JUMPDEST JUMPDEST PUSH1 0x0 DUP4 ADD CALLDATALOAD PUSH8 0xFFFFFFFFFFFFFFFF DUP2 GT ISZERO PUSH2 0xB2D JUMPI PUSH2 0xB2C PUSH2 0x1024 JUMP JUMPDEST JUMPDEST PUSH2 0xB39 DUP6 DUP3 DUP7 ADD PUSH2 0x9DF JUMP JUMPDEST SWAP3 POP POP PUSH1 0x20 PUSH2 0xB4A DUP6 DUP3 DUP7 ADD PUSH2 0xA0D JUMP JUMPDEST SWAP2 POP POP SWAP3 POP SWAP3 SWAP1 POP JUMP JUMPDEST PUSH1 0x0 PUSH1 0x20 DUP3 DUP5 SUB SLT ISZERO PUSH2 0xB6A JUMPI PUSH2 0xB69 PUSH2 0x1029 JUMP JUMPDEST JUMPDEST PUSH1 0x0 PUSH2 0xB78 DUP5 DUP3 DUP6 ADD PUSH2 0xA0D JUMP JUMPDEST SWAP2 POP POP SWAP3 SWAP2 POP POP JUMP JUMPDEST PUSH1 0x0 PUSH1 0x20 DUP3 DUP5 SUB SLT ISZERO PUSH2 0xB97 JUMPI PUSH2 0xB96 PUSH2 0x1029 JUMP JUMPDEST JUMPDEST PUSH1 0x0 PUSH2 0xBA5 DUP5 DUP3 DUP6 ADD PUSH2 0xA22 JUMP JUMPDEST SWAP2 POP POP SWAP3 SWAP2 POP POP JUMP JUMPDEST PUSH1 0x0 DUP1 PUSH1 0x40 DUP4 DUP6 SUB SLT ISZERO PUSH2 0xBC5 JUMPI PUSH2 0xBC4 PUSH2 0x1029 JUMP JUMPDEST JUMPDEST PUSH1 0x0 PUSH2 0xBD3 DUP6 DUP3 DUP7 ADD PUSH2 0xA0D JUMP JUMPDEST SWAP3 POP POP PUSH1 0x20 PUSH2 0xBE4 DUP6 DUP3 DUP7 ADD PUSH2 0xA0D JUMP JUMPDEST SWAP2 POP POP SWAP3 POP SWAP3 SWAP1 POP JUMP JUMPDEST PUSH2 0xBF7 DUP2 PUSH2 0xE35 JUMP JUMPDEST DUP3 MSTORE POP POP JUMP JUMPDEST PUSH1 0x0 PUSH2 0xC08 DUP3 PUSH2 0xDE4 JUMP JUMPDEST PUSH2 0xC12 DUP2 DUP6 PUSH2 0xDEF JUMP JUMPDEST SWAP4 POP PUSH2 0xC22 DUP2 DUP6 PUSH1 0x20 DUP7 ADD PUSH2 0xE7A JUMP JUMPDEST PUSH2 0xC2B DUP2 PUSH2 0x102E JUMP JUMPDEST DUP5 ADD SWAP2 POP POP SWAP3 SWAP2 POP POP JUMP JUMPDEST PUSH1 0x0 PUSH2 0xC41 DUP3 PUSH2 0xDE4 JUMP JUMPDEST PUSH2 0xC4B DUP2 DUP6 PUSH2 0xE00 JUMP JUMPDEST SWAP4 POP PUSH2 0xC5B DUP2 DUP6 PUSH1 0x20 DUP7 ADD PUSH2 0xE7A JUMP JUMPDEST DUP1 DUP5 ADD SWAP2 POP POP SWAP3 SWAP2 POP POP JUMP JUMPDEST PUSH1 0x0 PUSH2 0xC74 PUSH1 0x28 DUP4 PUSH2 0xDEF JUMP JUMPDEST SWAP2 POP PUSH2 0xC7F DUP3 PUSH2 0x103F JUMP JUMPDEST PUSH1 0x40 DUP3 ADD SWAP1 POP SWAP2 SWAP1 POP JUMP JUMPDEST PUSH2 0xC93 DUP2 PUSH2 0xE2B JUMP JUMPDEST DUP3 MSTORE POP POP JUMP JUMPDEST PUSH1 0x0 PUSH2 0xCA5 DUP3 DUP5 PUSH2 0xC36 JUMP JUMPDEST SWAP2 POP DUP2 SWAP1 POP SWAP3 SWAP2 POP POP JUMP JUMPDEST PUSH1 0x0 PUSH1 0x20 DUP3 ADD SWAP1 POP PUSH2 0xCC5 PUSH1 0x0 DUP4 ADD DUP5 PUSH2 0xBEE JUMP JUMPDEST SWAP3 SWAP2 POP POP JUMP JUMPDEST PUSH1 0x0 PUSH1 0x20 DUP3 ADD SWAP1 POP DUP2 DUP2 SUB PUSH1 0x0 DUP4 ADD MSTORE PUSH2 0xCE4 DUP2 PUSH2 0xC67 JUMP JUMPDEST SWAP1 POP SWAP2 SWAP1 POP JUMP JUMPDEST PUSH1 0x0 PUSH1 0x20 DUP3 ADD SWAP1 POP PUSH2 0xD00 PUSH1 0x0 DUP4 ADD DUP5 PUSH2 0xC8A JUMP JUMPDEST SWAP3 SWAP2 POP POP JUMP JUMPDEST PUSH1 0x0 PUSH1 0x40 DUP3 ADD SWAP1 POP PUSH2 0xD1B PUSH1 0x0 DUP4 ADD DUP6 PUSH2 0xC8A JUMP JUMPDEST DUP2 DUP2 SUB PUSH1 0x20 DUP4 ADD MSTORE PUSH2 0xD2D DUP2 DUP5 PUSH2 0xBFD JUMP JUMPDEST SWAP1 POP SWAP4 SWAP3 POP POP POP JUMP JUMPDEST PUSH1 0x0 PUSH2 0xD40 PUSH2 0xD51 JUMP JUMPDEST SWAP1 POP PUSH2 0xD4C DUP3 DUP3 PUSH2 0xEDF JUMP JUMPDEST SWAP2 SWAP1 POP JUMP JUMPDEST PUSH1 0x0 PUSH1 0x40 MLOAD SWAP1 POP SWAP1 JUMP JUMPDEST PUSH1 0x0 PUSH8 0xFFFFFFFFFFFFFFFF DUP3 GT ISZERO PUSH2 0xD76 JUMPI PUSH2 0xD75 PUSH2 0xFE6 JUMP JUMPDEST JUMPDEST PUSH1 0x20 DUP3 MUL SWAP1 POP PUSH1 0x20 DUP2 ADD SWAP1 POP SWAP2 SWAP1 POP JUMP JUMPDEST PUSH1 0x0 PUSH8 0xFFFFFFFFFFFFFFFF DUP3 GT ISZERO PUSH2 0xDA2 JUMPI PUSH2 0xDA1 PUSH2 0xFE6 JUMP JUMPDEST JUMPDEST PUSH1 0x20 DUP3 MUL SWAP1 POP PUSH1 0x20 DUP2 ADD SWAP1 POP SWAP2 SWAP1 POP JUMP JUMPDEST PUSH1 0x0 PUSH8 0xFFFFFFFFFFFFFFFF DUP3 GT ISZERO PUSH2 0xDCE JUMPI PUSH2 0xDCD PUSH2 0xFE6 JUMP JUMPDEST JUMPDEST PUSH2 0xDD7 DUP3 PUSH2 0x102E JUMP JUMPDEST SWAP1 POP PUSH1 0x20 DUP2 ADD SWAP1 POP SWAP2 SWAP1 POP JUMP JUMPDEST PUSH1 0x0 DUP2 MLOAD SWAP1 POP SWAP2 SWAP1 POP JUMP JUMPDEST PUSH1 0x0 DUP3 DUP3 MSTORE PUSH1 0x20 DUP3 ADD SWAP1 POP SWAP3 SWAP2 POP POP JUMP JUMPDEST PUSH1 0x0 DUP2 SWAP1 POP SWAP3 SWAP2 POP POP JUMP JUMPDEST PUSH1 0x0 PUSH20 0xFFFFFFFFFFFFFFFFFFFFFFFFFFFFFFFFFFFFFFFF DUP3 AND SWAP1 POP SWAP2 SWAP1 POP JUMP JUMPDEST PUSH1 0x0 DUP2 SWAP1 POP SWAP2 SWAP1 POP JUMP JUMPDEST PUSH1 0x0 PUSH2 0xE40 DUP3 PUSH2 0xE47 JUMP JUMPDEST SWAP1 POP SWAP2 SWAP1 POP JUMP JUMPDEST PUSH1 0x0 PUSH2 0xE52 DUP3 PUSH2 0xE59 JUMP JUMPDEST SWAP1 POP SWAP2 SWAP1 POP JUMP JUMPDEST PUSH1 0x0 PUSH2 0xE64 DUP3 PUSH2 0xE0B JUMP JUMPDEST SWAP1 POP SWAP2 SWAP1 POP JUMP JUMPDEST DUP3 DUP2 DUP4 CALLDATACOPY PUSH1 0x0 DUP4 DUP4 ADD MSTORE POP POP POP JUMP JUMPDEST PUSH1 0x0 JUMPDEST DUP4 DUP2 LT ISZERO PUSH2 0xE98 JUMPI DUP1 DUP3 ADD MLOAD DUP2 DUP5 ADD MSTORE PUSH1 0x20 DUP2 ADD SWAP1 POP PUSH2 0xE7D JUMP JUMPDEST DUP4 DUP2 GT ISZERO PUSH2 0xEA7 JUMPI PUSH1 0x0 DUP5 DUP5 ADD MSTORE JUMPDEST POP POP POP POP JUMP JUMPDEST PUSH1 0x0 PUSH1 0x2 DUP3 DIV SWAP1 POP PUSH1 0x1 DUP3 AND DUP1 PUSH2 0xEC5 JUMPI PUSH1 0x7F DUP3 AND SWAP2 POP JUMPDEST PUSH1 0x20 DUP3 LT DUP2 EQ ISZERO PUSH2 0xED9 JUMPI PUSH2 0xED8 PUSH2 0xF88 JUMP JUMPDEST JUMPDEST POP SWAP2 SWAP1 POP JUMP JUMPDEST PUSH2 0xEE8 DUP3 PUSH2 0x102E JUMP JUMPDEST DUP2 ADD DUP2 DUP2 LT PUSH8 0xFFFFFFFFFFFFFFFF DUP3 GT OR ISZERO PUSH2 0xF07 JUMPI PUSH2 0xF06 PUSH2 0xFE6 JUMP JUMPDEST JUMPDEST DUP1 PUSH1 0x40 MSTORE POP POP POP JUMP JUMPDEST PUSH1 0x0 PUSH2 0xF1B DUP3 PUSH2 0xE2B JUMP JUMPDEST SWAP2 POP PUSH32 0xFFFFFFFFFFFFFFFFFFFFFFFFFFFFFFFFFFFFFFFFFFFFFFFFFFFFFFFFFFFFFFFF DUP3 EQ ISZERO PUSH2 0xF4E JUMPI PUSH2 0xF4D PUSH2 0xF59 JUMP JUMPDEST JUMPDEST PUSH1 0x1 DUP3 ADD SWAP1 POP SWAP2 SWAP1 POP JUMP JUMPDEST PUSH32 0x4E487B7100000000000000000000000000000000000000000000000000000000 PUSH1 0x0 MSTORE PUSH1 0x11 PUSH1 0x4 MSTORE PUSH1 0x24 PUSH1 0x0 REVERT JUMPDEST PUSH32 0x4E487B7100000000000000000000000000000000000000000000000000000000 PUSH1 0x0 MSTORE PUSH1 0x22 PUSH1 0x4 MSTORE PUSH1 0x24 PUSH1 0x0 REVERT JUMPDEST PUSH32 0x4E487B7100000000000000000000000000000000000000000000000000000000 PUSH1 0x0 MSTORE PUSH1 0x32 PUSH1 0x4 MSTORE PUSH1 0x24 PUSH1 0x0 REVERT JUMPDEST PUSH32 0x4E487B7100000000000000000000000000000000000000000000000000000000 PUSH1 0x0 MSTORE PUSH1 0x41 PUSH1 0x4 MSTORE PUSH1 0x24 PUSH1 0x0 REVERT JUMPDEST PUSH1 0x0 DUP1 REVERT JUMPDEST PUSH1 0x0 DUP1 REVERT JUMPDEST PUSH1 0x0 DUP1 REVERT JUMPDEST PUSH1 0x0 DUP1 REVERT JUMPDEST PUSH1 0x0 DUP1 REVERT JUMPDEST PUSH1 0x0 PUSH1 0x1F NOT PUSH1 0x1F DUP4 ADD AND SWAP1 POP SWAP2 SWAP1 POP JUMP JUMPDEST PUSH32 0x4561636820706572736F6E206D75737420686176652061206661766F75726974 PUSH1 0x0 DUP3 ADD MSTORE PUSH32 0x65206E756D626572000000000000000000000000000000000000000000000000 PUSH1 0x20 DUP3 ADD MSTORE POP JUMP JUMPDEST PUSH2 0x1097 DUP2 PUSH2 0xE2B JUMP JUMPDEST DUP2 EQ PUSH2 0x10A2 JUMPI PUSH1 0x0 DUP1 REVERT JUMPDEST POP JUMP INVALID PUSH1 0x80 PUSH1 0x40 MSTORE CALLVALUE DUP1 ISZERO PUSH2 0x10 JUMPI PUSH1 0x0 DUP1 REVERT JUMPDEST POP PUSH2 0xCD0 DUP1 PUSH2 0x20 PUSH1 0x0 CODECOPY PUSH1 0x0 RETURN INVALID PUSH1 0x80 PUSH1 0x40 MSTORE CALLVALUE DUP1 ISZERO PUSH2 0x10 JUMPI PUSH1 0x0 DUP1 REVERT JUMPDEST POP PUSH1 0x4 CALLDATASIZE LT PUSH2 0x7D JUMPI PUSH1 0x0 CALLDATALOAD PUSH1 0xE0 SHR DUP1 PUSH4 0x6F760F41 GT PUSH2 0x5B JUMPI DUP1 PUSH4 0x6F760F41 EQ PUSH2 0xEC JUMPI DUP1 PUSH4 0x8BAB8DD5 EQ PUSH2 0x108 JUMPI DUP1 PUSH4 0x9E7A13AD EQ PUSH2 0x138 JUMPI DUP1 PUSH4 0x9EBF003D EQ PUSH2 0x169 JUMPI PUSH2 0x7D JUMP JUMPDEST DUP1 PUSH4 0x2E64CEC1 EQ PUSH2 0x82 JUMPI DUP1 PUSH4 0x6057361D EQ PUSH2 0xA0 JUMPI DUP1 PUSH4 0x67CA97C3 EQ PUSH2 0xBC JUMPI JUMPDEST PUSH1 0x0 DUP1 REVERT JUMPDEST PUSH2 0x8A PUSH2 0x185 JUMP JUMPDEST PUSH1 0x40 MLOAD PUSH2 0x97 SWAP2 SWAP1 PUSH2 0x936 JUMP JUMPDEST PUSH1 0x40 MLOAD DUP1 SWAP2 SUB SWAP1 RETURN JUMPDEST PUSH2 0xBA PUSH1 0x4 DUP1 CALLDATASIZE SUB DUP2 ADD SWAP1 PUSH2 0xB5 SWAP2 SWAP1 PUSH2 0x836 JUMP JUMPDEST PUSH2 0x18E JUMP JUMPDEST STOP JUMPDEST PUSH2 0xD6 PUSH1 0x4 DUP1 CALLDATASIZE SUB DUP2 ADD SWAP1 PUSH2 0xD1 SWAP2 SWAP1 PUSH2 0x791 JUMP JUMPDEST PUSH2 0x198 JUMP JUMPDEST PUSH1 0x40 MLOAD PUSH2 0xE3 SWAP2 SWAP1 PUSH2 0x936 JUMP JUMPDEST PUSH1 0x40 MLOAD DUP1 SWAP2 SUB SWAP1 RETURN JUMPDEST PUSH2 0x106 PUSH1 0x4 DUP1 CALLDATASIZE SUB DUP2 ADD SWAP1 PUSH2 0x101 SWAP2 SWAP1 PUSH2 0x7DA JUMP JUMPDEST PUSH2 0x1C0 JUMP JUMPDEST STOP JUMPDEST PUSH2 0x122 PUSH1 0x4 DUP1 CALLDATASIZE SUB DUP2 ADD SWAP1 PUSH2 0x11D SWAP2 SWAP1 PUSH2 0x791 JUMP JUMPDEST PUSH2 0x250 JUMP JUMPDEST PUSH1 0x40 MLOAD PUSH2 0x12F SWAP2 SWAP1 PUSH2 0x936 JUMP JUMPDEST PUSH1 0x40 MLOAD DUP1 SWAP2 SUB SWAP1 RETURN JUMPDEST PUSH2 0x152 PUSH1 0x4 DUP1 CALLDATASIZE SUB DUP2 ADD SWAP1 PUSH2 0x14D SWAP2 SWAP1 PUSH2 0x836 JUMP JUMPDEST PUSH2 0x27E JUMP JUMPDEST PUSH1 0x40 MLOAD PUSH2 0x160 SWAP3 SWAP2 SWAP1 PUSH2 0x951 JUMP JUMPDEST PUSH1 0x40 MLOAD DUP1 SWAP2 SUB SWAP1 RETURN JUMPDEST PUSH2 0x183 PUSH1 0x4 DUP1 CALLDATASIZE SUB DUP2 ADD SWAP1 PUSH2 0x17E SWAP2 SWAP1 PUSH2 0x719 JUMP JUMPDEST PUSH2 0x33A JUMP JUMPDEST STOP JUMPDEST PUSH1 0x0 DUP1 SLOAD SWAP1 POP SWAP1 JUMP JUMPDEST DUP1 PUSH1 0x0 DUP2 SWAP1 SSTORE POP POP JUMP JUMPDEST PUSH1 0x0 PUSH1 0x2 DUP3 PUSH1 0x40 MLOAD PUSH2 0x1AA SWAP2 SWAP1 PUSH2 0x8FF JUMP JUMPDEST SWAP1 DUP2 MSTORE PUSH1 0x20 ADD PUSH1 0x40 MLOAD DUP1 SWAP2 SUB SWAP1 KECCAK256 SLOAD SWAP1 POP SWAP2 SWAP1 POP JUMP JUMPDEST PUSH1 0x1 PUSH1 0x40 MLOAD DUP1 PUSH1 0x40 ADD PUSH1 0x40 MSTORE DUP1 DUP4 DUP2 MSTORE PUSH1 0x20 ADD DUP5 DUP2 MSTORE POP SWAP1 DUP1 PUSH1 0x1 DUP2 SLOAD ADD DUP1 DUP3 SSTORE DUP1 SWAP2 POP POP PUSH1 0x1 SWAP1 SUB SWAP1 PUSH1 0x0 MSTORE PUSH1 0x20 PUSH1 0x0 KECCAK256 SWAP1 PUSH1 0x2 MUL ADD PUSH1 0x0 SWAP1 SWAP2 SWAP1 SWAP2 SWAP1 SWAP2 POP PUSH1 0x0 DUP3 ADD MLOAD DUP2 PUSH1 0x0 ADD SSTORE PUSH1 0x20 DUP3 ADD MLOAD DUP2 PUSH1 0x1 ADD SWAP1 DUP1 MLOAD SWAP1 PUSH1 0x20 ADD SWAP1 PUSH2 0x226 SWAP3 SWAP2 SWAP1 PUSH2 0x497 JUMP JUMPDEST POP POP POP DUP1 PUSH1 0x2 DUP4 PUSH1 0x40 MLOAD PUSH2 0x23A SWAP2 SWAP1 PUSH2 0x8FF JUMP JUMPDEST SWAP1 DUP2 MSTORE PUSH1 0x20 ADD PUSH1 0x40 MLOAD DUP1 SWAP2 SUB SWAP1 KECCAK256 DUP2 SWAP1 SSTORE POP POP POP JUMP JUMPDEST PUSH1 0x2 DUP2 DUP1 MLOAD PUSH1 0x20 DUP2 ADD DUP3 ADD DUP1 MLOAD DUP5 DUP3 MSTORE PUSH1 0x20 DUP4 ADD PUSH1 0x20 DUP6 ADD KECCAK256 DUP2 DUP4 MSTORE DUP1 SWAP6 POP POP POP POP POP POP PUSH1 0x0 SWAP2 POP SWAP1 POP SLOAD DUP2 JUMP JUMPDEST PUSH1 0x1 DUP2 DUP2 SLOAD DUP2 LT PUSH2 0x28E JUMPI PUSH1 0x0 DUP1 REVERT JUMPDEST SWAP1 PUSH1 0x0 MSTORE PUSH1 0x20 PUSH1 0x0 KECCAK256 SWAP1 PUSH1 0x2 MUL ADD PUSH1 0x0 SWAP2 POP SWAP1 POP DUP1 PUSH1 0x0 ADD SLOAD SWAP1 DUP1 PUSH1 0x1 ADD DUP1 SLOAD PUSH2 0x2B7 SWAP1 PUSH2 0xAA2 JUMP JUMPDEST DUP1 PUSH1 0x1F ADD PUSH1 0x20 DUP1 SWAP2 DIV MUL PUSH1 0x20 ADD PUSH1 0x40 MLOAD SWAP1 DUP2 ADD PUSH1 0x40 MSTORE DUP1 SWAP3 SWAP2 SWAP1 DUP2 DUP2 MSTORE PUSH1 0x20 ADD DUP3 DUP1 SLOAD PUSH2 0x2E3 SWAP1 PUSH2 0xAA2 JUMP JUMPDEST DUP1 ISZERO PUSH2 0x330 JUMPI DUP1 PUSH1 0x1F LT PUSH2 0x305 JUMPI PUSH2 0x100 DUP1 DUP4 SLOAD DIV MUL DUP4 MSTORE SWAP2 PUSH1 0x20 ADD SWAP2 PUSH2 0x330 JUMP JUMPDEST DUP3 ADD SWAP2 SWAP1 PUSH1 0x0 MSTORE PUSH1 0x20 PUSH1 0x0 KECCAK256 SWAP1 JUMPDEST DUP2 SLOAD DUP2 MSTORE SWAP1 PUSH1 0x1 ADD SWAP1 PUSH1 0x20 ADD DUP1 DUP4 GT PUSH2 0x313 JUMPI DUP3 SWAP1 SUB PUSH1 0x1F AND DUP3 ADD SWAP2 JUMPDEST POP POP POP POP POP SWAP1 POP DUP3 JUMP JUMPDEST DUP1 MLOAD DUP3 MLOAD EQ ISZERO PUSH2 0x37F JUMPI PUSH1 0x40 MLOAD PUSH32 0x8C379A000000000000000000000000000000000000000000000000000000000 DUP2 MSTORE PUSH1 0x4 ADD PUSH2 0x376 SWAP1 PUSH2 0x916 JUMP JUMPDEST PUSH1 0x40 MLOAD DUP1 SWAP2 SUB SWAP1 REVERT JUMPDEST PUSH1 0x0 JUMPDEST DUP3 MLOAD DUP2 LT ISZERO PUSH2 0x492 JUMPI PUSH1 0x1 PUSH1 0x40 MLOAD DUP1 PUSH1 0x40 ADD PUSH1 0x40 MSTORE DUP1 DUP5 DUP5 DUP2 MLOAD DUP2 LT PUSH2 0x3AB JUMPI PUSH2 0x3AA PUSH2 0xBAC JUMP JUMPDEST JUMPDEST PUSH1 0x20 MUL PUSH1 0x20 ADD ADD MLOAD DUP2 MSTORE PUSH1 0x20 ADD DUP6 DUP5 DUP2 MLOAD DUP2 LT PUSH2 0x3CB JUMPI PUSH2 0x3CA PUSH2 0xBAC JUMP JUMPDEST JUMPDEST PUSH1 0x20 MUL PUSH1 0x20 ADD ADD MLOAD DUP2 MSTORE POP SWAP1 DUP1 PUSH1 0x1 DUP2 SLOAD ADD DUP1 DUP3 SSTORE DUP1 SWAP2 POP POP PUSH1 0x1 SWAP1 SUB SWAP1 PUSH1 0x0 MSTORE PUSH1 0x20 PUSH1 0x0 KECCAK256 SWAP1 PUSH1 0x2 MUL ADD PUSH1 0x0 SWAP1 SWAP2 SWAP1 SWAP2 SWAP1 SWAP2 POP PUSH1 0x0 DUP3 ADD MLOAD DUP2 PUSH1 0x0 ADD SSTORE PUSH1 0x20 DUP3 ADD MLOAD DUP2 PUSH1 0x1 ADD SWAP1 DUP1 MLOAD SWAP1 PUSH1 0x20 ADD SWAP1 PUSH2 0x425 SWAP3 SWAP2 SWAP1 PUSH2 0x497 JUMP JUMPDEST POP POP POP DUP2 DUP2 DUP2 MLOAD DUP2 LT PUSH2 0x43B JUMPI PUSH2 0x43A PUSH2 0xBAC JUMP JUMPDEST JUMPDEST PUSH1 0x20 MUL PUSH1 0x20 ADD ADD MLOAD PUSH1 0x2 DUP5 DUP4 DUP2 MLOAD DUP2 LT PUSH2 0x458 JUMPI PUSH2 0x457 PUSH2 0xBAC JUMP JUMPDEST JUMPDEST PUSH1 0x20 MUL PUSH1 0x20 ADD ADD MLOAD PUSH1 0x40 MLOAD PUSH2 0x46D SWAP2 SWAP1 PUSH2 0x8FF JUMP JUMPDEST SWAP1 DUP2 MSTORE PUSH1 0x20 ADD PUSH1 0x40 MLOAD DUP1 SWAP2 SUB SWAP1 KECCAK256 DUP2 SWAP1 SSTORE POP DUP1 DUP1 PUSH2 0x48A SWAP1 PUSH2 0xB05 JUMP JUMPDEST SWAP2 POP POP PUSH2 0x382 JUMP JUMPDEST POP POP POP JUMP JUMPDEST DUP3 DUP1 SLOAD PUSH2 0x4A3 SWAP1 PUSH2 0xAA2 JUMP JUMPDEST SWAP1 PUSH1 0x0 MSTORE PUSH1 0x20 PUSH1 0x0 KECCAK256 SWAP1 PUSH1 0x1F ADD PUSH1 0x20 SWAP1 DIV DUP2 ADD SWAP3 DUP3 PUSH2 0x4C5 JUMPI PUSH1 0x0 DUP6 SSTORE PUSH2 0x50C JUMP JUMPDEST DUP3 PUSH1 0x1F LT PUSH2 0x4DE JUMPI DUP1 MLOAD PUSH1 0xFF NOT AND DUP4 DUP1 ADD OR DUP6 SSTORE PUSH2 0x50C JUMP JUMPDEST DUP3 DUP1 ADD PUSH1 0x1 ADD DUP6 SSTORE DUP3 ISZERO PUSH2 0x50C JUMPI SWAP2 DUP3 ADD JUMPDEST DUP3 DUP2 GT ISZERO PUSH2 0x50B JUMPI DUP3 MLOAD DUP3 SSTORE SWAP2 PUSH1 0x20 ADD SWAP2 SWAP1 PUSH1 0x1 ADD SWAP1 PUSH2 0x4F0 JUMP JUMPDEST JUMPDEST POP SWAP1 POP PUSH2 0x519 SWAP2 SWAP1 PUSH2 0x51D JUMP JUMPDEST POP SWAP1 JUMP JUMPDEST JUMPDEST DUP1 DUP3 GT ISZERO PUSH2 0x536 JUMPI PUSH1 0x0 DUP2 PUSH1 0x0 SWAP1 SSTORE POP PUSH1 0x1 ADD PUSH2 0x51E JUMP JUMPDEST POP SWAP1 JUMP JUMPDEST PUSH1 0x0 PUSH2 0x54D PUSH2 0x548 DUP5 PUSH2 0x9A6 JUMP JUMPDEST PUSH2 0x981 JUMP JUMPDEST SWAP1 POP DUP1 DUP4 DUP3 MSTORE PUSH1 0x20 DUP3 ADD SWAP1 POP DUP3 DUP6 PUSH1 0x20 DUP7 MUL DUP3 ADD GT ISZERO PUSH2 0x570 JUMPI PUSH2 0x56F PUSH2 0xC0F JUMP JUMPDEST JUMPDEST PUSH1 0x0 JUMPDEST DUP6 DUP2 LT ISZERO PUSH2 0x5BE JUMPI DUP2 CALLDATALOAD PUSH8 0xFFFFFFFFFFFFFFFF DUP2 GT ISZERO PUSH2 0x596 JUMPI PUSH2 0x595 PUSH2 0xC0A JUMP JUMPDEST JUMPDEST DUP1 DUP7 ADD PUSH2 0x5A3 DUP10 DUP3 PUSH2 0x6D6 JUMP JUMPDEST DUP6 MSTORE PUSH1 0x20 DUP6 ADD SWAP5 POP PUSH1 0x20 DUP5 ADD SWAP4 POP POP POP PUSH1 0x1 DUP2 ADD SWAP1 POP PUSH2 0x573 JUMP JUMPDEST POP POP POP SWAP4 SWAP3 POP POP POP JUMP JUMPDEST PUSH1 0x0 PUSH2 0x5DB PUSH2 0x5D6 DUP5 PUSH2 0x9D2 JUMP JUMPDEST PUSH2 0x981 JUMP JUMPDEST SWAP1 POP DUP1 DUP4 DUP3 MSTORE PUSH1 0x20 DUP3 ADD SWAP1 POP DUP3 DUP6 PUSH1 0x20 DUP7 MUL DUP3 ADD GT ISZERO PUSH2 0x5FE JUMPI PUSH2 0x5FD PUSH2 0xC0F JUMP JUMPDEST JUMPDEST PUSH1 0x0 JUMPDEST DUP6 DUP2 LT ISZERO PUSH2 0x62E JUMPI DUP2 PUSH2 0x614 DUP9 DUP3 PUSH2 0x704 JUMP JUMPDEST DUP5 MSTORE PUSH1 0x20 DUP5 ADD SWAP4 POP PUSH1 0x20 DUP4 ADD SWAP3 POP POP PUSH1 0x1 DUP2 ADD SWAP1 POP PUSH2 0x601 JUMP JUMPDEST POP POP POP SWAP4 SWAP3 POP POP POP JUMP JUMPDEST PUSH1 0x0 PUSH2 0x64B PUSH2 0x646 DUP5 PUSH2 0x9FE JUMP JUMPDEST PUSH2 0x981 JUMP JUMPDEST SWAP1 POP DUP3 DUP2 MSTORE PUSH1 0x20 DUP2 ADD DUP5 DUP5 DUP5 ADD GT ISZERO PUSH2 0x667 JUMPI PUSH2 0x666 PUSH2 0xC14 JUMP JUMPDEST JUMPDEST PUSH2 0x672 DUP5 DUP3 DUP6 PUSH2 0xA60 JUMP JUMPDEST POP SWAP4 SWAP3 POP POP POP JUMP JUMPDEST PUSH1 0x0 DUP3 PUSH1 0x1F DUP4 ADD SLT PUSH2 0x68F JUMPI PUSH2 0x68E PUSH2 0xC0A JUMP JUMPDEST JUMPDEST DUP2 CALLDATALOAD PUSH2 0x69F DUP5 DUP3 PUSH1 0x20 DUP7 ADD PUSH2 0x53A JUMP JUMPDEST SWAP2 POP POP SWAP3 SWAP2 POP POP JUMP JUMPDEST PUSH1 0x0 DUP3 PUSH1 0x1F DUP4 ADD SLT PUSH2 0x6BD JUMPI PUSH2 0x6BC PUSH2 0xC0A JUMP JUMPDEST JUMPDEST DUP2 CALLDATALOAD PUSH2 0x6CD DUP5 DUP3 PUSH1 0x20 DUP7 ADD PUSH2 0x5C8 JUMP JUMPDEST SWAP2 POP POP SWAP3 SWAP2 POP POP JUMP JUMPDEST PUSH1 0x0 DUP3 PUSH1 0x1F DUP4 ADD SLT PUSH2 0x6EB JUMPI PUSH2 0x6EA PUSH2 0xC0A JUMP JUMPDEST JUMPDEST DUP2 CALLDATALOAD PUSH2 0x6FB DUP5 DUP3 PUSH1 0x20 DUP7 ADD PUSH2 0x638 JUMP JUMPDEST SWAP2 POP POP SWAP3 SWAP2 POP POP JUMP JUMPDEST PUSH1 0x0 DUP2 CALLDATALOAD SWAP1 POP PUSH2 0x713 DUP2 PUSH2 0xC83 JUMP JUMPDEST SWAP3 SWAP2 POP POP JUMP JUMPDEST PUSH1 0x0 DUP1 PUSH1 0x40 DUP4 DUP6 SUB SLT ISZERO PUSH2 0x730 JUMPI PUSH2 0x72F PUSH2 0xC1E JUMP JUMPDEST JUMPDEST PUSH1 0x0 DUP4 ADD CALLDATALOAD PUSH8 0xFFFFFFFFFFFFFFFF DUP2 GT ISZERO PUSH2 0x74E JUMPI PUSH2 0x74D PUSH2 0xC19 JUMP JUMPDEST JUMPDEST PUSH2 0x75A DUP6 DUP3 DUP7 ADD PUSH2 0x67A JUMP JUMPDEST SWAP3 POP POP PUSH1 0x20 DUP4 ADD CALLDATALOAD PUSH8 0xFFFFFFFFFFFFFFFF DUP2 GT ISZERO PUSH2 0x77B JUMPI PUSH2 0x77A PUSH2 0xC19 JUMP JUMPDEST JUMPDEST PUSH2 0x787 DUP6 DUP3 DUP7 ADD PUSH2 0x6A8 JUMP JUMPDEST SWAP2 POP POP SWAP3 POP SWAP3 SWAP1 POP JUMP JUMPDEST PUSH1 0x0 PUSH1 0x20 DUP3 DUP5 SUB SLT ISZERO PUSH2 0x7A7 JUMPI PUSH2 0x7A6 PUSH2 0xC1E JUMP JUMPDEST JUMPDEST PUSH1 0x0 DUP3 ADD CALLDATALOAD PUSH8 0xFFFFFFFFFFFFFFFF DUP2 GT ISZERO PUSH2 0x7C5 JUMPI PUSH2 0x7C4 PUSH2 0xC19 JUMP JUMPDEST JUMPDEST PUSH2 0x7D1 DUP5 DUP3 DUP6 ADD PUSH2 0x6D6 JUMP JUMPDEST SWAP2 POP POP SWAP3 SWAP2 POP POP JUMP JUMPDEST PUSH1 0x0 DUP1 PUSH1 0x40 DUP4 DUP6 SUB SLT ISZERO PUSH2 0x7F1 JUMPI PUSH2 0x7F0 PUSH2 0xC1E JUMP JUMPDEST JUMPDEST PUSH1 0x0 DUP4 ADD CALLDATALOAD PUSH8 0xFFFFFFFFFFFFFFFF DUP2 GT ISZERO PUSH2 0x80F JUMPI PUSH2 0x80E PUSH2 0xC19 JUMP JUMPDEST JUMPDEST PUSH2 0x81B DUP6 DUP3 DUP7 ADD PUSH2 0x6D6 JUMP JUMPDEST SWAP3 POP POP PUSH1 0x20 PUSH2 0x82C DUP6 DUP3 DUP7 ADD PUSH2 0x704 JUMP JUMPDEST SWAP2 POP POP SWAP3 POP SWAP3 SWAP1 POP JUMP JUMPDEST PUSH1 0x0 PUSH1 0x20 DUP3 DUP5 SUB SLT ISZERO PUSH2 0x84C JUMPI PUSH2 0x84B PUSH2 0xC1E JUMP JUMPDEST JUMPDEST PUSH1 0x0 PUSH2 0x85A DUP5 DUP3 DUP6 ADD PUSH2 0x704 JUMP JUMPDEST SWAP2 POP POP SWAP3 SWAP2 POP POP JUMP JUMPDEST PUSH1 0x0 PUSH2 0x86E DUP3 PUSH2 0xA2F JUMP JUMPDEST PUSH2 0x878 DUP2 DUP6 PUSH2 0xA3A JUMP JUMPDEST SWAP4 POP PUSH2 0x888 DUP2 DUP6 PUSH1 0x20 DUP7 ADD PUSH2 0xA6F JUMP JUMPDEST PUSH2 0x891 DUP2 PUSH2 0xC23 JUMP JUMPDEST DUP5 ADD SWAP2 POP POP SWAP3 SWAP2 POP POP JUMP JUMPDEST PUSH1 0x0 PUSH2 0x8A7 DUP3 PUSH2 0xA2F JUMP JUMPDEST PUSH2 0x8B1 DUP2 DUP6 PUSH2 0xA4B JUMP JUMPDEST SWAP4 POP PUSH2 0x8C1 DUP2 DUP6 PUSH1 0x20 DUP7 ADD PUSH2 0xA6F JUMP JUMPDEST DUP1 DUP5 ADD SWAP2 POP POP SWAP3 SWAP2 POP POP JUMP JUMPDEST PUSH1 0x0 PUSH2 0x8DA PUSH1 0x28 DUP4 PUSH2 0xA3A JUMP JUMPDEST SWAP2 POP PUSH2 0x8E5 DUP3 PUSH2 0xC34 JUMP JUMPDEST PUSH1 0x40 DUP3 ADD SWAP1 POP SWAP2 SWAP1 POP JUMP JUMPDEST PUSH2 0x8F9 DUP2 PUSH2 0xA56 JUMP JUMPDEST DUP3 MSTORE POP POP JUMP JUMPDEST PUSH1 0x0 PUSH2 0x90B DUP3 DUP5 PUSH2 0x89C JUMP JUMPDEST SWAP2 POP DUP2 SWAP1 POP SWAP3 SWAP2 POP POP JUMP JUMPDEST PUSH1 0x0 PUSH1 0x20 DUP3 ADD SWAP1 POP DUP2 DUP2 SUB PUSH1 0x0 DUP4 ADD MSTORE PUSH2 0x92F DUP2 PUSH2 0x8CD JUMP JUMPDEST SWAP1 POP SWAP2 SWAP1 POP JUMP JUMPDEST PUSH1 0x0 PUSH1 0x20 DUP3 ADD SWAP1 POP PUSH2 0x94B PUSH1 0x0 DUP4 ADD DUP5 PUSH2 0x8F0 JUMP JUMPDEST SWAP3 SWAP2 POP POP JUMP JUMPDEST PUSH1 0x0 PUSH1 0x40 DUP3 ADD SWAP1 POP PUSH2 0x966 PUSH1 0x0 DUP4 ADD DUP6 PUSH2 0x8F0 JUMP JUMPDEST DUP2 DUP2 SUB PUSH1 0x20 DUP4 ADD MSTORE PUSH2 0x978 DUP2 DUP5 PUSH2 0x863 JUMP JUMPDEST SWAP1 POP SWAP4 SWAP3 POP POP POP JUMP JUMPDEST PUSH1 0x0 PUSH2 0x98B PUSH2 0x99C JUMP JUMPDEST SWAP1 POP PUSH2 0x997 DUP3 DUP3 PUSH2 0xAD4 JUMP JUMPDEST SWAP2 SWAP1 POP JUMP JUMPDEST PUSH1 0x0 PUSH1 0x40 MLOAD SWAP1 POP SWAP1 JUMP JUMPDEST PUSH1 0x0 PUSH8 0xFFFFFFFFFFFFFFFF DUP3 GT ISZERO PUSH2 0x9C1 JUMPI PUSH2 0x9C0 PUSH2 0xBDB JUMP JUMPDEST JUMPDEST PUSH1 0x20 DUP3 MUL SWAP1 POP PUSH1 0x20 DUP2 ADD SWAP1 POP SWAP2 SWAP1 POP JUMP JUMPDEST PUSH1 0x0 PUSH8 0xFFFFFFFFFFFFFFFF DUP3 GT ISZERO PUSH2 0x9ED JUMPI PUSH2 0x9EC PUSH2 0xBDB JUMP JUMPDEST JUMPDEST PUSH1 0x20 DUP3 MUL SWAP1 POP PUSH1 0x20 DUP2 ADD SWAP1 POP SWAP2 SWAP1 POP JUMP JUMPDEST PUSH1 0x0 PUSH8 0xFFFFFFFFFFFFFFFF DUP3 GT ISZERO PUSH2 0xA19 JUMPI PUSH2 0xA18 PUSH2 0xBDB JUMP JUMPDEST JUMPDEST PUSH2 0xA22 DUP3 PUSH2 0xC23 JUMP JUMPDEST SWAP1 POP PUSH1 0x20 DUP2 ADD SWAP1 POP SWAP2 SWAP1 POP JUMP JUMPDEST PUSH1 0x0 DUP2 MLOAD SWAP1 POP SWAP2 SWAP1 POP JUMP JUMPDEST PUSH1 0x0 DUP3 DUP3 MSTORE PUSH1 0x20 DUP3 ADD SWAP1 POP SWAP3 SWAP2 POP POP JUMP JUMPDEST PUSH1 0x0 DUP2 SWAP1 POP SWAP3 SWAP2 POP POP JUMP JUMPDEST PUSH1 0x0 DUP2 SWAP1 POP SWAP2 SWAP1 POP JUMP JUMPDEST DUP3 DUP2 DUP4 CALLDATACOPY PUSH1 0x0 DUP4 DUP4 ADD MSTORE POP POP POP JUMP JUMPDEST PUSH1 0x0 JUMPDEST DUP4 DUP2 LT ISZERO PUSH2 0xA8D JUMPI DUP1 DUP3 ADD MLOAD DUP2 DUP5 ADD MSTORE PUSH1 0x20 DUP2 ADD SWAP1 POP PUSH2 0xA72 JUMP JUMPDEST DUP4 DUP2 GT ISZERO PUSH2 0xA9C JUMPI PUSH1 0x0 DUP5 DUP5 ADD MSTORE JUMPDEST POP POP POP POP JUMP JUMPDEST PUSH1 0x0 PUSH1 0x2 DUP3 DIV SWAP1 POP PUSH1 0x1 DUP3 AND DUP1 PUSH2 0xABA JUMPI PUSH1 0x7F DUP3 AND SWAP2 POP JUMPDEST PUSH1 0x20 DUP3 LT DUP2 EQ ISZERO PUSH2 0xACE JUMPI PUSH2 0xACD PUSH2 0xB7D JUMP JUMPDEST JUMPDEST POP SWAP2 SWAP1 POP JUMP JUMPDEST PUSH2 0xADD DUP3 PUSH2 0xC23 JUMP JUMPDEST DUP2 ADD DUP2 DUP2 LT PUSH8 0xFFFFFFFFFFFFFFFF DUP3 GT OR ISZERO PUSH2 0xAFC JUMPI PUSH2 0xAFB PUSH2 0xBDB JUMP JUMPDEST JUMPDEST DUP1 PUSH1 0x40 MSTORE POP POP POP JUMP JUMPDEST PUSH1 0x0 PUSH2 0xB10 DUP3 PUSH2 0xA56 JUMP JUMPDEST SWAP2 POP PUSH32 0xFFFFFFFFFFFFFFFFFFFFFFFFFFFFFFFFFFFFFFFFFFFFFFFFFFFFFFFFFFFFFFFF DUP3 EQ ISZERO PUSH2 0xB43 JUMPI PUSH2 0xB42 PUSH2 0xB4E JUMP JUMPDEST JUMPDEST PUSH1 0x1 DUP3 ADD SWAP1 POP SWAP2 SWAP1 POP JUMP JUMPDEST PUSH32 0x4E487B7100000000000000000000000000000000000000000000000000000000 PUSH1 0x0 MSTORE PUSH1 0x11 PUSH1 0x4 MSTORE PUSH1 0x24 PUSH1 0x0 REVERT JUMPDEST PUSH32 0x4E487B7100000000000000000000000000000000000000000000000000000000 PUSH1 0x0 MSTORE PUSH1 0x22 PUSH1 0x4 MSTORE PUSH1 0x24 PUSH1 0x0 REVERT JUMPDEST PUSH32 0x4E487B7100000000000000000000000000000000000000000000000000000000 PUSH1 0x0 MSTORE PUSH1 0x32 PUSH1 0x4 MSTORE PUSH1 0x24 PUSH1 0x0 REVERT JUMPDEST PUSH32 0x4E487B7100000000000000000000000000000000000000000000000000000000 PUSH1 0x0 MSTORE PUSH1 0x41 PUSH1 0x4 MSTORE PUSH1 0x24 PUSH1 0x0 REVERT JUMPDEST PUSH1 0x0 DUP1 REVERT JUMPDEST PUSH1 0x0 DUP1 REVERT JUMPDEST PUSH1 0x0 DUP1 REVERT JUMPDEST PUSH1 0x0 DUP1 REVERT JUMPDEST PUSH1 0x0 DUP1 REVERT JUMPDEST PUSH1 0x0 PUSH1 0x1F NOT PUSH1 0x1F DUP4 ADD AND SWAP1 POP SWAP2 SWAP1 POP JUMP JUMPDEST PUSH32 0x4561636820706572736F6E206D75737420686176652061206661766F75726974 PUSH1 0x0 DUP3 ADD MSTORE PUSH32 0x65206E756D626572000000000000000000000000000000000000000000000000 PUSH1 0x20 DUP3 ADD MSTORE POP JUMP JUMPDEST PUSH2 0xC8C DUP2 PUSH2 0xA56 JUMP JUMPDEST DUP2 EQ PUSH2 0xC97 JUMPI PUSH1 0x0 DUP1 REVERT JUMPDEST POP JUMP INVALID LOG2 PUSH5 0x6970667358 0x22 SLT KECCAK256 STOP GT 0xA5 PUSH22 0x4C5CB854FC1175C2318F4BCCF94A1B7C03CECB8B308 EXP PUSH9 0xD7D3C75164736F6C63 NUMBER STOP ADDMOD SMOD STOP CALLER LOG2 PUSH5 0x6970667358 0x22 SLT KECCAK256 0x23 PUSH24 0xDBDD8DABD073D0BAE48A755B063605491DE6CD48BB940C47 0xDE AND 0xBA PUSH31 0x7C7464736F6C63430008070033000000000000000000000000000000000000 "
		},
		"gasEstimates": {
			"creation": {
				"codeDepositCost": "1525400",
				"executionCost": "1596",
				"totalCost": "1526996"
			},
			"external": {
				"addMultiplePeople(string[],uint256[])": "infinite",
				"addPerson(string,uint256)": "infinite",
				"createSimpleStorageContract()": "infinite",
				"getFavouriteNumber(string)": "infinite",
				"nameToFavoriteNumber(string)": "infinite",
				"people(uint256)": "infinite",
				"retrieve()": "2482",
				"sfGet(uint256)": "infinite",
				"sfStore(uint256,uint256)": "infinite",
				"simpleStorageArray(uint256)": "5131",
				"store(uint256)": "22587"
			}
		},
		"methodIdentifiers": {
			"addMultiplePeople(string[],uint256[])": "9ebf003d",
			"addPerson(string,uint256)": "6f760f41",
			"createSimpleStorageContract()": "1dda6541",
			"getFavouriteNumber(string)": "67ca97c3",
			"nameToFavoriteNumber(string)": "8bab8dd5",
			"people(uint256)": "9e7a13ad",
			"retrieve()": "2e64cec1",
			"sfGet(uint256)": "c5f19c20",
			"sfStore(uint256,uint256)": "1563700f",
			"simpleStorageArray(uint256)": "64591bf1",
			"store(uint256)": "6057361d"
		}
	},
	"abi": [
		{
			"inputs": [
				{
					"internalType": "string[]",
					"name": "_names",
					"type": "string[]"
				},
				{
					"internalType": "uint256[]",
					"name": "_favouriteNumbers",
					"type": "uint256[]"
				}
			],
			"name": "addMultiplePeople",
			"outputs": [],
			"stateMutability": "nonpayable",
			"type": "function"
		},
		{
			"inputs": [
				{
					"internalType": "string",
					"name": "_name",
					"type": "string"
				},
				{
					"internalType": "uint256",
					"name": "_favoriteNumber",
					"type": "uint256"
				}
			],
			"name": "addPerson",
			"outputs": [],
			"stateMutability": "nonpayable",
			"type": "function"
		},
		{
			"inputs": [],
			"name": "createSimpleStorageContract",
			"outputs": [],
			"stateMutability": "nonpayable",
			"type": "function"
		},
		{
			"inputs": [
				{
					"internalType": "string",
					"name": "_name",
					"type": "string"
				}
			],
			"name": "getFavouriteNumber",
			"outputs": [
				{
					"internalType": "uint256",
					"name": "",
					"type": "uint256"
				}
			],
			"stateMutability": "view",
			"type": "function"
		},
		{
			"inputs": [
				{
					"internalType": "string",
					"name": "",
					"type": "string"
				}
			],
			"name": "nameToFavoriteNumber",
			"outputs": [
				{
					"internalType": "uint256",
					"name": "",
					"type": "uint256"
				}
			],
			"stateMutability": "view",
			"type": "function"
		},
		{
			"inputs": [
				{
					"internalType": "uint256",
					"name": "",
					"type": "uint256"
				}
			],
			"name": "people",
			"outputs": [
				{
					"internalType": "uint256",
					"name": "favoriteNumber",
					"type": "uint256"
				},
				{
					"internalType": "string",
					"name": "name",
					"type": "string"
				}
			],
			"stateMutability": "view",
			"type": "function"
		},
		{
			"inputs": [],
			"name": "retrieve",
			"outputs": [
				{
					"internalType": "uint256",
					"name": "",
					"type": "uint256"
				}
			],
			"stateMutability": "view",
			"type": "function"
		},
		{
			"inputs": [
				{
					"internalType": "uint256",
					"name": "_simpleStorageIndex",
					"type": "uint256"
				}
			],
			"name": "sfGet",
			"outputs": [
				{
					"internalType": "uint256",
					"name": "",
					"type": "uint256"
				}
			],
			"stateMutability": "view",
			"type": "function"
		},
		{
			"inputs": [
				{
					"internalType": "uint256",
					"name": "_simpleStorageIndex",
					"type": "uint256"
				},
				{
					"internalType": "uint256",
					"name": "_simpleStorageNumber",
					"type": "uint256"
				}
			],
			"name": "sfStore",
			"outputs": [],
			"stateMutability": "nonpayable",
			"type": "function"
		},
		{
			"inputs": [
				{
					"internalType": "uint256",
					"name": "",
					"type": "uint256"
				}
			],
			"name": "simpleStorageArray",
			"outputs": [
				{
					"internalType": "contract SimpleStorage",
					"name": "",
					"type": "address"
				}
			],
			"stateMutability": "view",
			"type": "function"
		},
		{
			"inputs": [
				{
					"internalType": "uint256",
					"name": "_favoriteNumber",
					"type": "uint256"
				}
			],
			"name": "store",
			"outputs": [],
			"stateMutability": "nonpayable",
			"type": "function"
		}
	]
}